:020000040800F2
:1000000000280020691C0008891A00088F1A0008BF
:10001000951A00089B1A0008A11A000800000000A9
:10002000000000000000000000000000A71A000807
:10003000B31A000800000000BF1A0008CB1A00081D
:10004000B11C0008B11C0008B11C0008B11C00085C
:10005000B11C0008B11C0008B11C0008B11C00084C
:10006000B11C0008B11C0008B11C0008B11C00083C
:10007000B11C0008B11C0008B11C0008B11C00082C
:10008000B11C0008B11C0008B11C0008B11C00081C
:10009000B11C0008B11C0008B11C0008B11C00080C
:1000A000B11C0008B11C0008B11C0008B11C0008FC
:1000B000D91A0008B11C000800000000B11C00089B
:1000C000B11C00080000000000000000B11C000886
:1000D00000000000B11C0008B11C00080000000076
:1000E000B11C0008B11C0008B11C00080000000091
:1000F0000000000000000000000000000000000000
:0C01000000000000000000005FF808F1A3
:10010C0010B5054C237833B9044B13B10448AFF345
:10011C0000800123237010BD54000020000000005B
:10012C00E832000808B5034B1BB103490348AFF391
:10013C00008008BD0000000058000020E8320008D4
:10014C0080B483B000AF7860044A7B68012142F828
:10015C00231000BF0C37BD4680BC70477C000020CC
:10016C0080B582B000AF00237B6012E04B4A7B6805
:10017C0052F823204A497B6841F82320494A7B687E
:10018C0052F8232045497B6841F823207B680133D2
:10019C007B607B68022BE9DD4FF40051424802F092
:1001AC006FF803461A463F4B1A604FF480413E48A5
:1001BC0002F066F803461A463A4B5A604FF4004177
:1001CC00394802F05DF803461A46364B9A60002314
:1001DC003B605AE0324A3B6852F823202F493B6877
:1001EC0051F823309A424DD12C4A3B6852F82320C7
:1001FC002C493B6851F823309A4243D12B4A3B6837
:10020C0052F8232027493B6851F823309A4216D0E4
:10021C00244A3B6852F8232024493B6841F82320A8
:10022C00204A3B6852F82330002B2BD13868FFF75B
:10023C0087FF1F4A3B68C82142F8231022E0194A65
:10024C003B6852F82330002B17D1194A3B6852F8FF
:10025C0023305A1E16493B6841F82320144A3B6848
:10026C0052F82330002B0DDC3868FFF769FF104A79
:10027C003B68322142F8231004E00D4A3B68002110
:10028C0042F823103B6801333B603B68022BA1DD35
:10029C0000BF00BF0837BD4680BD00BF0C0000206A
:1002AC00000000201800002000080140240000205D
:1002BC007000002080B500AFB04B1B68042B00F21F
:1002CC007B8301A252F823F0E90200081B0300080B
:1002DC00A504000871060008FB070008032001F0C4
:1002EC0005FC032001F05EFCA54B1B68A54A1360BE
:1002FC00A34B5B68A44A1360A14B9B68A34A136091
:10030C009E4B01221A60642001F0E4FA55E3A04BE5
:10031C001B68012B40F08780192001F0EFFA9D4BF0
:10032C001B68002B02D0012B20D03AE001224FF4A5
:10033C008071994801F0BBFF00224FF40071964880
:10034C0001F0B5FF904B1A68944B83FB0213991084
:10035C00D317C91A0B469B000B445B00D11A0846F5
:10036C0000F030FE8B4B01221A601AE000224FF491
:10037C008071894801F09BFF01224FF4007186487F
:10038C0001F095FF804B1B68844A82FB031292108C
:10039C00DB17D31A184600F015FE7E4B00221A60AC
:1003AC0000BF7F4B1B68002B02D0012B20D03AE002
:1003BC0001224FF48061784801F079FF00224FF45C
:1003CC000061754801F073FF6E4B1A68734B83FB29
:1003DC0002139910D317C91A0B469B000B445B00F0
:1003EC00D11A084600F088FF6D4B01221A601AE002
:1003FC0000224FF48061684801F059FF01224FF44C
:10040C000061654801F053FF5E4B1B68634A82FB39
:10041C0003129210DB17D31A184600F06DFF604BD5
:10042C0000221A6000BF5F4B1B68012B11D15D4B82
:10043C0000221A60524B1B68524A1360504B5B6887
:10044C00514A13604E4B9B68504A13604B4B0A2227
:10045C001A60554B1B68012B17D1642001F03AFA36
:10046C00494B1B68013B484A1360464B1B68013BD8
:10047C00444A1360444B1B68002B06DC404B5B6802
:10048C00414A13603D4B02221A60002001F02EFB02
:10049C00012001F087FB90E23D4B1B68012B40F0E3
:1004AC00A080192001F02AFA3A4B1B68002B02D0CD
:1004BC00012B20D03AE001224FF48071364801F034
:1004CC00F6FE00224FF40071334801F0F0FE2F4B82
:1004DC001A68324B83FB02139910D317C91A0B46B7
:1004EC009B000B445B00D11A084600F06BFD294BB6
:1004FC0001221A601AE000224FF48071264801F0A4
:10050C00D6FE01224FF40071234801F0D0FE1F4BA0
:10051C001B68224A82FB03129210DB17D31A18466F
:10052C0000F050FD1B4B00221A6000BF1C4B1B68D7
:10053C00002B02D0012B39D053E001224FF4806103
:10054C00154801F0B4FE00224FF40061124801F08E
:10055C00AEFE0C4B1A68114B83FB02139910D31788
:10056C00C91A0B469B000B445B00D11A084600F0DD
:10057C00C3FE0B4B01221A6033E000BFA800002021
:10058C0030000020900000209400002098000020F3
:10059C004000002088000020000801406766666665
:1005AC008C0000207C000020F400002000224FF47E
:1005BC008061A64801F07BFE01224FF40061A34844
:1005CC0001F075FEA24B1B68A24A82FB031292102B
:1005DC00DB17D31A184600F08FFE9F4B00221A60CF
:1005EC0000BF9E4B1B68012B11D19C4B00221A6043
:1005FC009B4B1B68964A1360994B5B68994A136036
:10060C00974B9B68984A1360984B0A221A60984B38
:10061C001B68012B1FD1642001F05CF9924B1B6805
:10062C00013B914A13608A4B1B68013B884A13605B
:10063C008D4B1B68002B03DD854B1B68002B0ADCE4
:10064C00874B9B68884A1360854B1B68804A1360F4
:10065C00864B03221A60002001F048FA022001F0B8
:10066C00A1FAAAE1834B1B68012B40F0878019206B
:10067C0001F044F9804B1B68002B02D0012B20D0D9
:10068C003AE001224FF48071704801F010FE002214
:10069C004FF400716D4801F00AFE6D4B1A686D4BFA
:1006AC0083FB02139910D317C91A0B469B000B44FA
:1006BC005B00D11A084600F085FC6F4B01221A60D2
:1006CC001AE000224FF48071604801F0F0FD012225
:1006DC004FF400715D4801F0EAFD5D4B1B685D4A0B
:1006EC0082FB03129210DB17D31A184600F06AFC37
:1006FC00614B00221A6000BF574B1B68002B02D0C5
:10070C00012B20D03AE001224FF480614F4801F0D8
:10071C00CEFD00224FF400614C4801F0C8FD514B56
:10072C001A684C4B83FB02139910D317C91A0B464A
:10073C009B000B445B00D11A084600F0DDFD464BD4
:10074C0001221A601AE000224FF480613F4801F048
:10075C00AEFD01224FF400613C4801F0A8FD414B75
:10076C001B683C4A82FB03129210DB17D31A184603
:10077C0000F0C2FD384B00221A6000BF374B1B68DB
:10078C00012B11D1354B00221A60354B1B68304AB6
:10079C001360334B5B68334A1360314B9B68324AAE
:1007AC001360324B0A221A60314B1B68012B17D194
:1007BC00642001F08FF8264B1B68013B244A136020
:1007CC00284B1B68013B274A1360264B1B68002BE8
:1007DC0006DC234B5B68234A1360244B04221A600B
:1007EC00012001F083F9002001F0DCF9E5E0214B58
:1007FC001B68012B40F09F80192001F07FF81E4BE5
:10080C001B68002B02D0012B38D052E001224FF490
:10081C0080710E4801F04BFD00224FF400710B4823
:10082C0001F045FD0A4B1A680A4B83FB0213991021
:10083C00D317C91A0B469B000B445B00D11A084610
:10084C0000F0C0FB0C4B01221A6032E000080140A2
:10085C0090000020676666668C0000207C000020FB
:10086C00300000209400002098000020A8000020F8
:10087C00F4000020400000208800002000224FF4EB
:10088C0080714F4801F013FD01224FF400714C4868
:10089C0001F00DFD4B4B1B684B4A82FB031292106F
:1008AC00DB17D31A184600F08DFB484B00221A6058
:1008BC0000BF474B1B68002B02D0012B20D03AE025
:1008CC0001224FF480613E4801F0F1FC00224FF40C
:1008DC0000613B4801F0EBFC3E4B1A683A4B83FB42
:1008EC0002139910D317C91A0B469B000B445B00DB
:1008FC00D11A084600F000FD354B01221A601AE0AF
:10090C0000224FF480612E4801F0D1FC01224FF4FB
:10091C0000612B4801F0CBFC2E4B1B682A4A82FB52
:10092C0003129210DB17D31A184600F0E5FC284B83
:10093C0000221A6000BF284B1B68012B11D1264BDB
:10094C0000221A60254B1B681E4A1360234B5B6800
:10095C00234A1360214B9B681E4A1360214B0A22C9
:10096C001A60214B1B68012B1FD1642000F0B2FFD1
:10097C00144B1B68013B134A1360164B1B68013B5D
:10098C00144A13600F4B1B68002B03DD114B1B68C3
:10099C00002B0ADC114B1B680A4A13600F4B9B6837
:1009AC000C4A13600F4B01221A60022001F09EF8D2
:1009BC00002001F0F7F800E000BF00BF80BD00BFD1
:1009CC0000080140900000206766666688000020E1
:1009DC008C000020980000207C00002030000020BB
:1009EC0094000020A8000020F400002080B500AF87
:1009FC007B4B1B680A3B032B00F2D18201A252F8FD
:100A0C0023F000BF210A00084B0A0008BF0D0008A4
:100A1C001D0C0008734B1B68734A1360714B5B68A9
:100A2C00724A13606F4B9B68714A1360714B0022C2
:100A3C001A60714B00221A60694B0B221A6001225A
:100A4C0004216E4801F033FC012220216B4801F097
:100A5C002EFC01220821694801F029FC01224021C9
:100A6C00664801F024FC664B1B68012B0AD1192047
:100A7C0000F058FF1021614801F031FC80215F48E3
:100A8C0001F02DFC5F4B1B68012B05D15D4B002247
:100A9C001A60534B0D221A605A4B5B68012B0BD119
:100AAC00584B00225A60504B1B68622B04DC4E4B97
:100ABC001B6801334C4A1360524B9B68012B17D1B6
:100ACC00504B00229A60494B1A68494B1B681A44D8
:100ADC00454B1B689A420BD1434B1B68414A136030
:100AEC00424B1B683F4A5360414B1B683D4A936025
:100AFC00454B1B68012B40F05482192000F0FEFE80
:100B0C003C4B1B68002B02D0012B20D03AE0012279
:100B1C004FF48071394801F0CAFB00224FF4007188
:100B2C00364801F0C4FB304B1A68384B83FB021378
:100B3C009910D317C91A0B469B000B445B00D11AB2
:100B4C00084600F03FFA2B4B01221A601AE00022F3
:100B5C004FF48071294801F0AAFB01224FF4007177
:100B6C00264801F0A4FB204B1B68284A82FB031289
:100B7C009210DB17D31A184600F024FA1D4B0022F2
:100B8C001A6000BF1C4B1B68002B02D0012B13D02A
:100B9C0007E201224FF48061184801F088FB002223
:100BAC004FF40061154801F082FB012000F0A4FB1A
:100BBC00114B01221A6012E000224FF480610F48A1
:100BCC0001F075FB01224FF400610C4801F06FFB42
:100BDC00002000F091FB084B00221A6000BFE0E1FE
:100BEC00A8000020300000209C000020A000002065
:100BFC00A4000020880000208C0000200008014088
:100C0C00440000207C0000204000002067666666DF
:100C1C0001220421A14801F04AFB012220219F4816
:100C2C0001F045FB012210219C4801F040FB012200
:100C3C0080219A4801F03BFB994B1B68012B0AD190
:100C4C00192000F06FFE0821944801F048FB402168
:100C5C00924801F044FB934B1B68012B05D1914B3F
:100C6C0000221A60904B0C221A608E4B5B68012B91
:100C7C000BD18C4B00225A608C4B1B68622B04DC12
:100C8C008A4B1B680133894A1360864B9B68012B86
:100C9C0017D1844B00229A60854B1A68834B1B68D2
:100CAC001A44844B1B689A420BD1824B1B68824AB4
:100CBC0013607F4B1B68804A53607C4B1B687E4AD9
:100CCC0093607E4B1B68012B40F06D81192000F066
:100CDC0015FE7B4B1B68002B02D0012B20D03AE079
:100CEC0001224FF480716D4801F0E1FA00224FF4BB
:100CFC0000716A4801F0DBFA6C4B1A68714B83FB8C
:100D0C0002139910D317C91A0B469B000B445B00B6
:100D1C00D11A084600F056F9694B01221A601AE004
:100D2C0000224FF480715D4801F0C1FA01224FF4AA
:100D3C0000715A4801F0BBFA5C4B1B68614A82FB9C
:100D4C0003129210DB17D31A184600F03BF95C4BD8
:100D5C0000221A6000BF5C4B1B68002B02D0012BD9
:100D6C0013D020E101224FF480614C4801F09FFA2E
:100D7C0000224FF40061494801F099FA022000F07A
:100D8C00BBFA514B01221A6012E000224FF4806131
:100D9C00424801F08CFA01224FF400613F4801F007
:100DAC0086FA002000F0A8FA474B00221A6000BF18
:100DBC00F9E001220821394801F079FA0122402199
:100DCC00364801F074FA01221021344801F06FFA10
:100DDC0001228021314801F06AFA314B1B68012B4A
:100DEC000AD1192000F09EFD04212C4801F077FA5D
:100DFC0020212A4801F073FA2A4B1B68012B11D1D0
:100E0C00284B00221A602C4B1B682A4A13602A4B71
:100E1C005B68274A1360284B9B68244A1360224B5B
:100E2C0000221A601F4B5B68012B0BD11D4B00225B
:100E3C005A601F4B1B68622B04DC1D4B1B68013373
:100E4C001B4A1360174B9B68012B17D1154B0022C3
:100E5C009A60174B1A68154B1B681A44154B1B6884
:100E6C009A420BD1134B1B68134A1360104B1B682F
:100E7C00114A53600D4B1B680F4A93600F4B1B6854
:100E8C00012B40F09280192000F038FD0C4B1B68B0
:100E9C00002B1BD0012B39D053E000BF00080140C0
:100EAC00440000207C000020A8000020A4000020AA
:100EBC00A00000209C0000203000002040000020FA
:100ECC0088000020676666668C00002001224FF4C3
:100EDC008071374801F0EBF900224FF4007134486F
:100EEC0001F0E5F9334B1A68334B83FB021399106D
:100EFC00D317C91A0B469B000B445B00D11A08464A
:100F0C0000F060F82D4B01221A601AE000224FF419
:100F1C008071274801F0CBF901224FF4007124486D
:100F2C0001F0C5F9234B1B68234A82FB0312921074
:100F3C00DB17D31A184600F045F8204B00221A6034
:100F4C0000BF1F4B1B68002B02D0012B13D02CE0D1
:100F5C0001224FF48061164801F0A9F900224FF4E8
:100F6C000061134801F0A3F9032000F0C5F9144BFC
:100F7C0001221A6012E000224FF480610C4801F04B
:100F8C0096F901224FF40061094801F090F9002014
:100F9C0000F0B2F90A4B00221A6000BF05E000BF56
:100FAC0004E000BF02E000BF00E000BF00BF80BD56
:100FBC0000080140A00000206766666688000020DB
:100FCC008C00002080B582B000AF78607B68092B64
:100FDC0000F28A8101A252F823F000BF1110000820
:100FEC005B100008A5100008EF100008391100086C
:100FFC0083110008CD1100081712000861120008B7
:10100C00AB12000800220421BA4801F050F900226A
:10101C000821B84801F04BF900221021B54801F025
:10102C0046F900222021B34801F041F90022402169
:10103C00B04801F03CF900228021AE4801F037F9AC
:10104C0001224FF48071AB4801F031F94DE10122DE
:10105C000421A84801F02BF900220821A54801F031
:10106C0026F900221021A34801F021F901222021A8
:10107C00A04801F01CF9012240219E4801F017F90B
:10108C00012280219B4801F012F901224FF480715A
:10109C00984801F00CF928E100220421954801F050
:1010AC0006F900220821934801F001F901221021D0
:1010BC00904801F0FCF8002220218E4801F0F7F84E
:1010CC00002240218B4801F0F2F80122802189484E
:1010DC0001F0EDF800224FF48071864801F0E7F83A
:1010EC0003E100220421834801F0E1F800220821E9
:1010FC00804801F0DCF8002210217E4801F0D7F87E
:10110C00002220217B4801F0D2F8012240217948AD
:10111C0001F0CDF801228021764801F0C8F80022B8
:10112C004FF48071734801F0C2F8DEE00122042113
:10113C00704801F0BCF8002208216E4801F0B7F8A5
:10114C00002210216B4801F0B2F8012220216948DD
:10115C0001F0ADF801224021664801F0A8F8002208
:10116C008021644801F0A3F800224FF4807161489B
:10117C0001F09DF8B9E0002204215E4801F097F8D7
:10118C00012208215B4801F092F8002210215948F5
:10119C0001F08DF800222021564801F088F8012238
:1011AC004021544801F083F800228021514801F07D
:1011BC007EF800224FF480714E4801F078F894E0EC
:1011CC00002204214B4801F072F801220821494801
:1011DC0001F06DF800221021464801F068F8002259
:1011EC002021444801F063F800224021414801F0DD
:1011FC005EF8002280213F4801F059F800224FF49C
:10120C0080713C4801F053F86FE00022042139480A
:10121C0001F04DF800220821364801F048F8002270
:10122C001021344801F043F801222021314801F00B
:10123C003EF8012240212F4801F039F8012280218B
:10124C002C4801F034F801224FF48071294801F048
:10125C002EF84AE000220421264801F028F800224A
:10126C000821244801F023F800221021214801F024
:10127C001EF8002220211F4801F019F800224021FD
:10128C001C4801F014F8002280211A4801F00FF8D4
:10129C0000224FF48071174801F009F825E0002274
:1012AC000421144801F003F800220821114800F031
:1012BC00FEFF002210210F4800F0F9FF0022202130
:1012CC000C4800F0F4FF012240210A4800F0EFFF27
:1012DC0000228021074800F0EAFF00224FF48071C1
:1012EC00044800F0E4FF00E000BF00BF0837BD4633
:1012FC0080BD00BF000C014080B582B000AF7860AB
:10130C007B68092B00F2C88101A252F823F000BFC0
:10131C00451300089B130008F1130008471400083C
:10132C009D140008F3140008491500089F150008C7
:10133C00F51500084B16000800224FF40071D54833
:10134C0000F0B5FF00224FF48061D24800F0AFFFEF
:10135C0000224FF40061CF4800F0A9FF00224FF4A7
:10136C008051CC4800F0A3FF00224FF40051C94833
:10137C0000F09DFF00224FF48041C64800F097FF1B
:10138C0001224FF40041C34800F091FF85E1012296
:10139C004FF40071BF4800F08AFF00224FF48061C7
:1013AC00BC4800F084FF00224FF40061B94800F003
:1013BC007EFF01224FF48051B64800F078FF0122E5
:1013CC004FF40051B34800F072FF01224FF48041FA
:1013DC00B04800F06CFF01224FF40041AD4800F022
:1013EC0066FF5AE100224FF40071AA4800F05FFF3B
:1013FC0000224FF48061A74800F059FF01224FF4FE
:10140C000061A44800F053FF00224FF48051A14822
:10141C0000F04DFF00224FF400519E4800F047FFB2
:10142C0001224FF480419B4800F041FF00224FF411
:10143C000041984800F03BFF2FE100224FF400716F
:10144C00944800F034FF00224FF48061914800F082
:10145C002EFF00224FF400618E4800F028FF00227E
:10146C004FF480518B4800F022FF01224FF40051C1
:10147C00884800F01CFF01224FF48041854800F0A1
:10148C0016FF00224FF40041824800F010FF04E1E7
:10149C0001224FF400717F4800F009FF00224FF445
:1014AC0080617C4800F003FF00224FF40061794812
:1014BC0000F0FDFE01224FF48051764800F0F7FE5B
:1014CC0001224FF40051734800F0F1FE00224FF45A
:1014DC008041704800F0EBFE00224FF400416D4853
:1014EC0000F0E5FED9E000224FF40071694800F0ED
:1014FC00DEFE01224FF48061664800F0D8FE002227
:10150C004FF40061634800F0D2FE00224FF480518A
:10151C00604800F0CCFE01224FF400515D4800F011
:10152C00C6FE00224FF480415A4800F0C0FE002253
:10153C004FF40041574800F0BAFEAEE000224FF4E1
:10154C000071544800F0B3FE01224FF48061514801
:10155C0000F0ADFE00224FF400614E4800F0A7FEF3
:10156C0000224FF480514B4800F0A1FE00224FF4B2
:10157C000051484800F09BFE00224FF48041454842
:10158C0000F095FE00224FF40041424800F08FFE1F
:10159C0083E000224FF400713E4800F088FE0022E8
:1015AC004FF480613B4800F082FE00224FF4006152
:1015BC00384800F07CFE01224FF48051354800F091
:1015CC0076FE01224FF40051324800F070FE0122E9
:1015DC004FF480412F4800F06AFE01224FF4004185
:1015EC002C4800F064FE58E000224FF400712948AA
:1015FC0000F05DFE00224FF48061264800F057FE9B
:10160C0000224FF40061234800F051FE00224FF4F9
:10161C008051204800F04BFE00224FF400511D4831
:10162C0000F045FE00224FF480411A4800F03FFEC6
:10163C0000224FF40041174800F039FE2DE0002243
:10164C004FF40071134800F032FE00224FF4806119
:10165C00104800F02CFE00224FF400610D4800F001
:10166C0026FE00224FF480510A4800F020FE012291
:10167C004FF40051074800F01AFE00224FF480414D
:10168C00044800F014FE00224FF40041014800F021
:10169C000EFE02E0000C014000BF00BF0837BD4643
:1016AC0080BD00BF80B500AF00F0FEFA00F014F86A
:1016BC0000F09AF800F04CF8054801F057FA054B89
:1016CC0000221A60FEF7F6FDFFF790F9FAE700BF6B
:1016DC00AC000020A800002080B590B000AF07F14E
:1016EC00180328220021184601F0CCFD3B1D0022D6
:1016FC001A605A609A60DA601A610223BB61012396
:10170C00BB621023FB6200237B6307F118031846AE
:10171C0000F0FEFD0346002B01D000F0D5F80F239E
:10172C007B600023BB600023FB6000233B61002334
:10173C007B613B1D0021184601F06CF80346002B21
:10174C0001D000F0C1F800BF4037BD4680BD00009D
:10175C0080B586B000AF07F1080300221A605A600A
:10176C009A60DA603B4600221A605A601D4B4FF0BB
:10177C0080421A601B4B41F63F725A60194B002293
:10178C009A60184B0922DA60164B00221A61154B2D
:10179C0000229A61134801F099F90346002B01D0FD
:1017AC0000F092F84FF48053BB6007F10803194620
:1017BC000C4801F017FB0346002B01D000F084F815
:1017CC0000233B6000237B603B461946054801F033
:1017DC00EFFC0346002B01D000F076F800BF183761
:1017EC00BD4680BDAC00002080B586B000AF07F1CF
:1017FC00080300221A605A609A60DA60294B9B69D0
:10180C00284A43F004039361264B9B6903F00403BD
:10181C007B607B68234B9B69224A43F008039361EE
:10182C00204B9B6903F008033B603B68002240F6A9
:10183C00FE711D4800F03BFD00224FF6FC711B4869
:10184C0000F035FD40F6FE73BB600123FB60002306
:10185C003B6102237B6107F108031946124800F033
:10186C0093FB4FF6FC73BB600123FB6000233B61D1
:10187C0002237B6107F1080319460C4800F084FB36
:10188C004FF46043BB600023FB6001233B6107F115
:10189C0008031946044800F077FB00BF1837BD4613
:1018AC0080BD00BF0010024000080140000C014048
:1018BC0080B582B000AF786000F048F8FEF750FCBD
:1018CC0000BF0837BD4680BD80B400AF72B600BF04
:1018DC00FEE7000080B483B000AF7860054A7B68F7
:1018EC001360054B00221A6000BF0C37BD4680BC4C
:1018FC00704700BF3C000020F400002080B483B08F
:10190C0000AF7860054A7B681360054B00221A60B3
:10191C0000BF0C37BD4680BC704700BFF8000020EC
:10192C004000002080B483B000AF7860054A7B682B
:10193C001360054B00221A6000BF0C37BD4680BCFB
:10194C00704700BFFC0000204400002080B400AFB2
:10195C00194B1B68002B0BDD174B1B68013B164A00
:10196C001360154B1B68002B02DC144B01221A6010
:10197C00134B1B68002B0BDD114B1B68013B104AF2
:10198C0013600F4B1B68002B02DC0E4B01221A60FC
:10199C000D4B1B68002B0BDD0B4B1B68013B0A4AE4
:1019AC001360094B1B68002B02DC084B01221A60E8
:1019BC0000BFBD4680BC70473C000020F4000020F6
:1019CC00F800002040000020FC0000204400002013
:1019DC0080B485B000AF154B9B69144A43F00103EA
:1019EC009361124B9B6903F00103BB60BB680F4B07
:1019FC00DB690E4A43F08053D3610C4BDB6903F077
:101A0C0080537B607B680A4B5B68FB60FB6823F050
:101A1C00E063FB60FB6843F08063FB60044AFB6897
:101A2C00536000BF1437BD4680BC704700100240A5
:101A3C000000014080B584B000AF78607B681B6803
:101A4C00B3F1804F13D10C4BDB690B4A43F001030C
:101A5C00D361094BDB6903F00103FB60FB680022D7
:101A6C0000211C2000F059FA1C2000F072FA00BF73
:101A7C001037BD4680BD00BF0010024080B400AFDF
:101A8C00FEE780B400AFFEE780B400AFFEE780B4A1
:101A9C0000AFFEE780B400AFFEE780B400AF00BF3C
:101AAC00BD4680BC704780B400AF00BFBD4680BC53
:101ABC00704780B400AF00BFBD4680BC704780B596
:101ACC0000AF00F037F900BF80BD000080B500AF5B
:101ADC00024801F097F800BF80BD00BFAC000020A9
:101AEC0080B400AF00BFBD4680BC704780B582B0EB
:101AFC0000AF0346FB71FB79032B4BD801A252F8C4
:101B0C0023F000BF211B0008411B0008611B0008CB
:101B1C00811B000800221021214800F0C8FB012283
:101B2C0004211F4800F0C3FB012208211C4800F0CF
:101B3C00BEFB30E001221021194800F0B8FB002256
:101B4C000421174800F0B3FB01220821144800F0CF
:101B5C00AEFB20E001221021114800F0A8FB01226D
:101B6C0004210F4800F0A3FB002208210C4800F0D0
:101B7C009EFB10E001221021094800F098FB012285
:101B8C000421074800F093FB01220821044800F0CF
:101B9C008EFB00E000BF00BF0837BD4680BD00BF14
:101BAC000008014080B582B000AF0346FB71FB79A1
:101BBC00032B4BD801A252F823F000BFD91B00080D
:101BCC00F91B0008191C0008391C00080022802190
:101BDC00214800F06CFB012220211F4800F067FB1C
:101BEC00012240211C4800F062FB30E001228021E0
:101BFC00194800F05CFB00222021174800F057FB2D
:101C0C0001224021144800F052FB20E001228021E7
:101C1C00114800F04CFB012220210F4800F047FB3B
:101C2C00002240210C4800F042FB10E00122102160
:101C3C00094800F03CFB01220421074800F037FB67
:101C4C0001220821044800F032FB00E000BF00BF75
:101C5C000837BD4680BD00BF00080140FFF740FFBC
:101C6C000B480C490C4A002302E0D458C4500433EE
:101C7C00C4188C42F9D3094A094C002301E01360C3
:101C8C000432A242FBD301F005FBFFF70BFD7047BA
:101C9C0000000020540000202C33000854000020C9
:101CAC0004010020FEE7000080B500AF084B1B6864
:101CBC00074A43F010031360032000F023F90F20B0
:101CCC0000F008F8FFF784FE0023184680BD00BF23
:101CDC000020024080B582B000AF7860124B1A68C9
:101CEC00124B1B7819464FF47A73B3FBF1F3B2FB2A
:101CFC00F3F3184600F03BF90346002B01D0012307
:101D0C000EE07B680F2B0AD8002279684FF0FF3069
:101D1C0000F003F9064A7B681360002300E00123FE
:101D2C0018460837BD4680BD4800002050000020F2
:101D3C004C00002080B400AF054B1B781A46054BB5
:101D4C001B681344034A136000BFBD4680BC704738
:101D5C00500000200001002080B400AF024B1B6833
:101D6C001846BD4680BC70470001002080B485B089
:101D7C0000AF78607B6803F00703FB600C4BDB68FB
:101D8C00BB60BA684FF6FF031340BB60FB681A02D6
:101D9C00BB68134343F0BF6343F40033BB60044A96
:101DAC00BB68D36000BF1437BD4680BC704700BF12
:101DBC0000ED00E080B400AF044BDB681B0A03F0BD
:101DCC0007031846BD4680BC704700BF00ED00E01D
:101DDC0080B483B000AF0346FB7197F90730002B3A
:101DEC000BDBFB7903F01F02064997F907305B09FF
:101DFC00012000FA02F241F8232000BF0C37BD4647
:101E0C0080BC704700E100E080B483B000AF0346B3
:101E1C003960FB7197F90730002B0ADB3B68DAB2AB
:101E2C000C4997F907301201D2B20B4483F8002306
:101E3C000AE03B68DAB20849FB7903F00F03043B74
:101E4C001201D2B20B441A7600BF0C37BD4680BCCF
:101E5C00704700BF00E100E000ED00E080B489B005
:101E6C0000AFF860B9607A60FB6803F00703FB61B0
:101E7C00FB69C3F10703042B28BF0423BB61FB6977
:101E8C000433062B02D9FB69033B00E000237B6182
:101E9C004FF0FF32BB6902FA03F3DA43BB681A4016
:101EAC007B699A404FF0FF317B6901FA03F3D94308
:101EBC007B680B40134318462437BD4680BC7047E3
:101ECC0080B582B000AF78607B68013BB3F1807F56
:101EDC0001D301230FE00A4A7B68013B53600F21B9
:101EEC004FF0FF30FFF790FF054B00229A60044B38
:101EFC0007221A60002318460837BD4680BD00BF74
:101F0C0010E000E080B582B000AF78607868FFF731
:101F1C002DFF00BF0837BD4680BD80B586B000AF31
:101F2C000346B9607A60FB7300237B61FFF742FFC5
:101F3C0078617A68B9687869FFF790FF024697F97B
:101F4C000F3011461846FFF75FFF00BF1837BD462C
:101F5C0080BD80B582B000AF0346FB7197F90730A6
:101F6C001846FFF735FF00BF0837BD4680BD80B56A
:101F7C0082B000AF78607868FFF7A2FF034618467E
:101F8C000837BD4680BD000080B48BB000AF7860D0
:101F9C00396000237B6200233B6261E101227B6A92
:101FAC0002FA03F3FB613B681B68FA691340BB61DF
:101FBC00BA69FB699A4240F050813B685B68974A6A
:101FCC0093425ED0954A934275D8954A934258D025
:101FDC00934A93426FD8934A934252D0914A934278
:101FEC0069D8914A93424CD08F4A934263D88F4A16
:101FFC00934246D08D4A93425DD8122B2AD8122B8D
:10200C0059D801A252F823F08F200008692000084B
:10201C007B200008BD200008C3200008C320000856
:10202C00C3200008C3200008C3200008C3200008F8
:10203C00C3200008C3200008C3200008C3200008E8
:10204C00C3200008C3200008C3200008712000082A
:10205C0085200008764A934213D02CE03B68DB685D
:10206C003B6229E03B68DB6804333B6224E03B685D
:10207C00DB6808333B621FE03B68DB680C333B6278
:10208C001AE03B689B68002B02D104233B6213E0EF
:10209C003B689B68012B05D108233B627B68FA697E
:1020AC001A6109E008233B627B68FA695A6103E014
:1020BC0000233B6200E000BFBB69FF2B01D87B68AB
:1020CC0001E07B6804337B61BB69FF2B02D87B6A20
:1020DC009B0002E07B6A083B9B003B617B691A68B2
:1020EC000F213B6901FA03F3DB431A40396A3B6960
:1020FC0001FA03F31A437B691A603B685B6803F0CF
:10210C008053002B00F0A9804A4B9B69494A43F04D
:10211C0001039361474B9B6903F00103BB60BB68F0
:10212C00454A7B6A9B08023352F82330FB607B6A7A
:10213C0003F003039B000F2202FA03F3DB43FA685C
:10214C001340FB607B683D4A93420DD07B683C4A50
:10215C00934207D07B683B4A934201D1022304E0AF
:10216C00032302E0012300E000237A6A02F0030259
:10217C0092009340FA681343FB602F497B6A9B08DB
:10218C000233FA6841F823203B685B6803F4801340
:10219C00002B06D02C4B9A682B49BB6913438B60E0
:1021AC0006E0294B9A68BB69DB43274913408B60D7
:1021BC003B685B6803F40013002B06D0224BDA68F3
:1021CC002149BB691343CB6006E01F4BDA68BB693E
:1021DC00DB431D491340CB603B685B6803F4003361
:1021EC00002B06D0184B5A681749BB6913434B6038
:1021FC0006E0154B5A68BB69DB43134913404B602F
:10220C003B685B6803F48033002B1FD00E4B1A68BD
:10221C000D49BB6913430B601FE000BF0000321077
:10222C0000003110000022100000211000001210DC
:10223C000000111000100240000001400008014095
:10224C00000C014000100140000401400B4B1A68C7
:10225C00BB69DB43094913400B607B6A01337B622A
:10226C003B681A687B6A22FA03F3002B7FF496AE64
:10227C0000BF00BF2C37BD4680BC70470004014036
:10228C0080B485B000AF78600B467B807B689A6821
:10229C007B881340002B02D00123FB7301E0002349
:1022AC00FB73FB7B18461437BD4680BC704780B46B
:1022BC0083B000AF78600B467B8013467B707B78D5
:1022CC00002B03D07A887B681A6103E07B881A04A0
:1022DC007B681A6100BF0C37BD4680BC704780B468
:1022EC0085B000AF78600B467B807B68DB68FB6059
:1022FC007A88FB6813401A04FB68D9437B880B402F
:10230C001A437B681A6100BF1437BD4680BC704706
:10231C0080B586B000AF78607B68002B01D10123BB
:10232C0072E27B681B6803F00103002B00F08780CE
:10233C00924B5B6803F00C03042B0CD08F4B5B6847
:10234C0003F00C03082B12D18C4B5B6803F4803325
:10235C00B3F5803F0BD1894B1B6803F40033002B82
:10236C006CD07B685B68002B68D101234CE27B68E6
:10237C005B68B3F5803F06D1804B1B687F4A43F402
:10238C00803313602EE07B685B68002B0CD17B4B99
:10239C001B687A4A23F480331360784B1B68774AA6
:1023AC0023F4802313601DE07B685B68B3F5A02FDA
:1023BC000CD1724B1B68714A43F4802313606F4B32
:1023CC001B686E4A43F4803313600BE06B4B1B6845
:1023DC006A4A23F480331360684B1B68674A23F402
:1023EC00802313607B685B68002B13D0FFF7B4FC71
:1023FC00386108E0FFF7B0FC02463B69D31A642B46
:10240C0001D9032300E25D4B1B6803F40033002B5E
:10241C00F0D014E0FFF7A0FC386108E0FFF79CFC5B
:10242C0002463B69D31A642B01D90323ECE1534BCD
:10243C001B6803F40033002BF0D100E000BF7B6875
:10244C001B6803F00203002B63D04C4B5B6803F05A
:10245C000C03002B0BD0494B5B6803F00C03082BCF
:10246C001CD1464B5B6803F48033002B16D1434BD5
:10247C001B6803F00203002B05D07B681B69012B42
:10248C0001D00123C0E13D4B1B6823F0F8027B68AF
:10249C005B69DB00394913430B603AE07B681B69CD
:1024AC00002B20D0364B01221A60FFF755FC386107
:1024BC0008E0FFF751FC02463B69D31A022B01D905
:1024CC000323A1E12D4B1B6803F00203002BF0D07A
:1024DC002A4B1B6823F0F8027B685B69DB002749F9
:1024EC0013430B6015E0264B00221A60FFF734FCF7
:1024FC00386108E0FFF730FC02463B69D31A022B27
:10250C0001D9032380E11D4B1B6803F00203002B50
:10251C00F0D17B681B6803F00803002B3AD07B6872
:10252C009B69002B19D0174B01221A60FFF714FC82
:10253C00386108E0FFF710FC02463B69D31A022B06
:10254C0001D9032360E10D4B5B6A03F00203002BFE
:10255C00F0D0012000F09CFA1CE00A4B00221A601B
:10256C00FFF7FAFB38610FE0FFF7F6FB02463B6919
:10257C00D31A022B08D9032346E100BF00100240F6
:10258C000000424280044242924B5B6A03F0020319
:10259C00002BE9D17B681B6803F00403002B00F0CF
:1025AC00A6800023FB758B4BDB6903F08053002B5B
:1025BC000DD1884BDB69874A43F08053D361854B3F
:1025CC00DB6903F08053BB60BB680123FB75824B56
:1025DC001B6803F48073002B18D17F4B1B687E4A59
:1025EC0043F480731360FFF7B7FB386108E0FFF723
:1025FC00B3FB02463B69D31A642B01D9032303E1D5
:10260C00754B1B6803F48073002BF0D07B68DB6880
:10261C00012B06D16F4B1B6A6E4A43F00103136208
:10262C002DE07B68DB68002B0CD16A4B1B6A694A76
:10263C0023F001031362674B1B6A664A23F0040301
:10264C0013621CE07B68DB68052B0CD1614B1B6AA9
:10265C00604A43F0040313625E4B1B6A5D4A43F00D
:10266C00010313620BE05B4B1B6A5A4A23F0010314
:10267C001362584B1B6A574A23F0040313627B689E
:10268C00DB68002B15D0FFF767FB38610AE0FFF71A
:10269C0063FB02463B69D31A41F28832934201D95B
:1026AC000323B1E04B4B1B6A03F00203002BEED06B
:1026BC0014E0FFF751FB38610AE0FFF74DFB0246CF
:1026CC003B69D31A41F28832934201D903239BE030
:1026DC00404B1B6A03F00203002BEED1FB7D012B58
:1026EC0005D13C4BDB693B4A23F08053D3617B68BB
:1026FC00DB69002B00F08780364B5B6803F00C0322
:10270C00082B61D07B68DB69022B46D1334B00224E
:10271C001A60FFF721FB386108E0FFF71DFB02464A
:10272C003B69D31A022B01D903236DE0294B1B689B
:10273C0003F00073002BF0D17B681B6AB3F5803F6C
:10274C0008D1244B5B6823F400327B689B682149D9
:10275C0013434B601F4B5B6823F474127B68196A3C
:10276C007B685B6A0B431B4913434B601B4B012279
:10277C001A60FFF7F1FA386108E0FFF7EDFA02464C
:10278C003B69D31A022B01D903233DE0114B1B6883
:10279C0003F00073002BF0D035E0104B00221A60D0
:1027AC00FFF7DAFA386108E0FFF7D6FA02463B6920
:1027BC00D31A022B01D9032326E0064B1B6803F026
:1027CC000073002BF0D11EE07B68DB69012B07D175
:1027DC00012319E0001002400070004060004242EA
:1027EC000B4B5B68FB60FB6803F480327B681B6AF5
:1027FC009A4206D1FB6803F470127B685B6A9A42BA
:10280C0001D0012300E0002318461837BD4680BDD7
:10281C000010024080B584B000AF786039607B68EE
:10282C00002B01D10123D0E06A4B1B6803F0070396
:10283C003A689A4210D9674B1B6823F00702654926
:10284C003B6813430B60634B1B6803F007033A6848
:10285C009A4201D00123B8E07B681B6803F00203A5
:10286C00002B20D07B681B6803F00403002B05D0E1
:10287C00594B5B68584A43F4E06353607B681B68B0
:10288C0003F00803002B05D0534B5B68524A43F40A
:10289C0060535360504B5B6823F0F0027B689B687D
:1028AC004D4913434B607B681B6803F00103002BFD
:1028BC0040D07B685B68012B07D1474B1B6803F446
:1028CC000033002B15D101237FE07B685B68022B62
:1028DC0007D1414B1B6803F00073002B09D1012376
:1028EC0073E03D4B1B6803F00203002B01D1012365
:1028FC006BE0394B5B6823F003027B685B683649FD
:10290C0013434B60FFF728FAF8600AE0FFF724FA4C
:10291C000246FB68D31A41F28832934201D9032351
:10292C0053E02D4B5B6803F00C027B685B689B00EB
:10293C009A42EBD1274B1B6803F007033A689A4283
:10294C0010D2244B1B6823F0070222493B68134327
:10295C000B60204B1B6803F007033A689A4201D0C6
:10296C00012332E07B681B6803F00403002B08D0C2
:10297C00194B5B6823F4E0627B68DB6816491343F0
:10298C004B607B681B6803F00803002B09D0124BCB
:10299C005B6823F460527B681B69DB000E491343B0
:1029AC004B6000F021F802460B4B5B681B0903F0EF
:1029BC000F030A49CB5C22FA03F3094A1360094B53
:1029CC001B681846FFF786F9002318461037BD46DA
:1029DC0080BD00BF00200240001002400033000800
:1029EC00480000204C00002080B487B000AF0023CA
:1029FC00FB600023BB6000237B6100237B60002312
:102A0C003B611E4B5B68FB60FB6803F00C03042B03
:102A1C0002D0082B03D027E0194B3B6127E0FB6861
:102A2C009B0C03F00F03174AD35C7B60FB6803F429
:102A3C008033002B10D0114B5B685B0C03F001034F
:102A4C00114AD35CBB607B680D4A03FB02F2BB6886
:102A5C00B2FBF3F37B6104E07B680C4A02FB03F3EB
:102A6C007B617B693B6102E0054B3B6100BF3B69CD
:102A7C0018461C37BD4680BC704700BF0010024092
:102A8C0000127A00103300082033000800093D00C2
:102A9C0080B485B000AF78600A4B1B680A4AA2FB71
:102AAC0003235B0A7A6802FB03F3FB6000BFFB683D
:102ABC005A1EFA60002BF9D100BF00BF1437BD4677
:102ACC0080BC704748000020D34D621080B582B0A6
:102ADC0000AF78607B68002B01D1012341E07B685B
:102AEC0093F83D30DBB2002B06D17B68002283F8D3
:102AFC003C207868FEF79EFF7B68022283F83D201D
:102B0C007B681A687B6804331946104600F056FA45
:102B1C007B68012283F846207B68012283F83E20E3
:102B2C007B68012283F83F207B68012283F84020D8
:102B3C007B68012283F841207B68012283F84220C4
:102B4C007B68012283F843207B68012283F84420B0
:102B5C007B68012283F845207B68012283F83D20A5
:102B6C00002318460837BD4680BD000080B485B0F0
:102B7C0000AF78607B6893F83D30DBB2012B01D05D
:102B8C00012335E07B68022283F83D207B681B68BB
:102B9C00DA687B681B6842F00102DA607B681B68AC
:102BAC00164A934209D07B681B68B3F1804F04D05E
:102BBC007B681B68124A934211D17B681B689B6827
:102BCC0003F00703FB60FB68062B10D07B681B68C7
:102BDC001A687B681B6842F001021A6007E07B6888
:102BEC001B681A687B681B6842F001021A6000239C
:102BFC0018461437BD4680BC704700BF002C0140FE
:102C0C000004004080B584B000AF78607B681B681E
:102C1C00DB68FB607B681B681B69BB60BB6803F0EF
:102C2C000203002B20D0FB6803F00203002B1BD007
:102C3C007B681B686FF002021A617B6801221A77AD
:102C4C007B681B689B6903F00303002B03D0786837
:102C5C0000F098F905E0786800F08BF9786800F0DE
:102C6C009AF97B6800221A77BB6803F00403002BE7
:102C7C0020D0FB6803F00403002B1BD07B681B687F
:102C8C006FF004021A617B6802221A777B681B685A
:102C9C009B6903F44073002B03D0786800F072F941
:102CAC0005E0786800F065F9786800F074F97B68E5
:102CBC0000221A77BB6803F00803002B20D0FB68B6
:102CCC0003F00803002B1BD07B681B686FF0080215
:102CDC001A617B6804221A777B681B68DB6903F036
:102CEC000303002B03D0786800F04CF905E07868FA
:102CFC0000F03FF9786800F04EF97B6800221A77F3
:102D0C00BB6803F01003002B20D0FB6803F010030A
:102D1C00002B1BD07B681B686FF010021A617B685C
:102D2C0008221A777B681B68DB6903F44073002B5D
:102D3C0003D0786800F026F905E0786800F019F9FE
:102D4C00786800F028F97B6800221A77BB6803F0DA
:102D5C000103002B0CD0FB6803F00103002B07D000
:102D6C007B681B686FF001021A617868FEF7A0FDA2
:102D7C00BB6803F08003002B0CD0FB6803F08003CE
:102D8C00002B07D07B681B686FF080021A61786893
:102D9C0000F06FFABB6803F04003002B0CD0FB680B
:102DAC0003F04003002B07D07B681B686FF04002D8
:102DBC001A61786800F0F8F8BB6803F02003002B68
:102DCC000CD0FB6803F02003002B07D07B681B683A
:102DDC006FF020021A61786800F042FA00BF1037D9
:102DEC00BD4680BD80B584B000AF786039600023EB
:102DFC00FB737B6893F83C30012B01D10223B4E0C8
:102E0C007B68012283F83C207B68022283F83D20FA
:102E1C007B681B689B68BB60BB6823F07703BB6057
:102E2C00BB6823F47F43BB607B681B68BA689A60FD
:102E3C003B681B68B3F5005F3ED0B3F5005F00F252
:102E4C008780B3F5805F00F08680B3F5805F7FD814
:102E5C00702B1AD0702B7BD8602B50D0602B77D86E
:102E6C00502B3CD0502B73D8402B58D0402B6FD8C4
:102E7C00302B64D0302B6BD8202B60D0202B67D814
:102E8C00002B5CD0102B5AD062E07B6818683B6832
:102E9C0099683B685A683B68DB6800F06AF97B68A4
:102EAC001B689B68BB60BB6843F07703BB607B68A7
:102EBC001B68BA689A604FE07B6818683B68996831
:102ECC003B685A683B68DB6800F053F97B681B6809
:102EDC009A687B681B6842F480429A603CE07B688D
:102EEC0018683B6859683B68DB681A4600F0CAF8FA
:102EFC007B681B685021184600F021F92CE07B6898
:102F0C0018683B6859683B68DB681A4600F0E8F8BB
:102F1C007B681B686021184600F011F91CE07B6887
:102F2C0018683B6859683B68DB681A4600F0AAF8D9
:102F3C007B681B684021184600F001F90CE07B68A7
:102F4C001A683B681B681946104600F0F8F803E055
:102F5C000123FB7300E000BF7B68012283F83D2056
:102F6C007B68002283F83C20FB7B18461037BD465B
:102F7C0080BD80B483B000AF786000BF0C37BD4615
:102F8C0080BC704780B483B000AF786000BF0C3752
:102F9C00BD4680BC704780B483B000AF786000BF82
:102FAC000C37BD4680BC704780B483B000AF7860EE
:102FBC0000BF0C37BD4680BC7047000080B485B0A4
:102FCC0000AF786039607B681B68FB607B682B4ABC
:102FDC00934207D07B68B3F1804F03D07B68284ABB
:102FEC00934208D1FB6823F07003FB603B685B687D
:102FFC00FA681343FB607B68204A934207D07B68D6
:10300C00B3F1804F03D07B681D4A934208D1FB6813
:10301C0023F44073FB603B68DB68FA681343FB6086
:10302C00FB6823F080023B685B691343FB607B68A1
:10303C00FA681A603B689A687B68DA623B681A68BF
:10304C007B689A627B680D4A934203D13B681A698C
:10305C007B681A637B6801225A617B681B6903F0E9
:10306C000103002B05D07B681B6923F001027B68F0
:10307C001A6100BF1437BD4680BC7047002C01405C
:10308C000004004080B487B000AFF860B9607A608B
:10309C00FB681B6A7B61FB681B6A23F00102FB68FF
:1030AC001A62FB689B693B613B6923F0F0033B614F
:1030BC007B681B013A6913433B617B6923F00A036C
:1030CC007B617A69BB6813437B61FB683A699A61DF
:1030DC00FB687A691A6200BF1C37BD4680BC70471A
:1030EC0080B487B000AFF860B9607A60FB681B6A87
:1030FC007B61FB681B6A23F01002FB681A62FB6899
:10310C009B693B613B6923F470433B617B681B0308
:10311C003A6913433B617B6923F0A0037B61BB6875
:10312C001B017A6913437B61FB683A699A61FB68FE
:10313C007A691A6200BF1C37BD4680BC704780B4E8
:10314C0085B000AF786039607B689B68FB60FB687A
:10315C0023F07003FB603A68FB68134343F00703EA
:10316C00FB607B68FA689A6000BF1437BD4680BC70
:10317C00704780B487B000AFF860B9607A603B608C
:10318C00FB689B687B617B6923F47F437B613B68B5
:10319C001A027B681A43BB6813437A6913437B6139
:1031AC00FB687A699A6000BF1C37BD4680BC7047CB
:1031BC0080B485B000AF786039607B6893F83C30A0
:1031CC00012B01D1022341E07B68012283F83C20D2
:1031DC007B68022283F83D207B681B685B68FB6080
:1031EC007B681B689B68BB60FB6823F07003FB600B
:1031FC003B681B68FA681343FB607B681B68FA68C2
:10320C005A607B681B68144A934209D07B681B6820
:10321C00B3F1804F04D07B681B68104A93420CD1E9
:10322C00BB6823F08003BB603B685B68BA681343E0
:10323C00BB607B681B68BA689A607B68012283F864
:10324C003D207B68002283F83C200023184614376D
:10325C00BD4680BC704700BF002C014000040040FC
:10326C0080B483B000AF786000BF0C37BD4680BC23
:10327C00704780B483B000AF786000BF0C37BD4698
:10328C0080BC704703460244934200D1704703F858
:10329C00011BF9E770B500260C4D0D4C641BA410F6
:1032AC00A64209D100F01AF800260A4D0A4C641BFC
:1032BC00A410A64205D170BD55F8043B98470136C1
:1032CC00EEE755F8043B98470136F2E72433000843
:1032DC00243300082433000828330008F8B500BF55
:1032EC00F8BC08BC9E467047F8B500BFF8BC08BCDB
:0432FC009E46704733
:103300000000000000000000010203040607080995
:1033100002030405060708090A0B0C0D0E0F101016
:0433200001020000A6
:04332400310100086B
:043328000D0100088B
:10332C00010000000100000001000000010000008D
:10333C00010000000100000001000000010000007D
:10334C00010000000100000001000000010000006D
:10335C0008000000050000000300000064000000ED
:10336C00010000000100000000127A0010000000B3
:04337C00010000004C
:0400000508001C696A
:00000001FF
